{
  "_format": "hh-sol-artifact-1",
  "contractName": "NeuralSalvageNFT",
  "sourceName": "contracts/NeuralSalvageNFT.sol",
  "abi": [
    {
      "inputs": [
        {
          "internalType": "address",
          "name": "initialOwner",
          "type": "address"
        },
        {
          "internalType": "address",
          "name": "_platformWallet",
          "type": "address"
        }
      ],
      "stateMutability": "nonpayable",
      "type": "constructor"
    },
    {
      "inputs": [
        {
          "internalType": "uint256",
          "name": "numerator",
          "type": "uint256"
        },
        {
          "internalType": "uint256",
          "name": "denominator",
          "type": "uint256"
        }
      ],
      "name": "ERC2981InvalidDefaultRoyalty",
      "type": "error"
    },
    {
      "inputs": [
        {
          "internalType": "address",
          "name": "receiver",
          "type": "address"
        }
      ],
      "name": "ERC2981InvalidDefaultRoyaltyReceiver",
      "type": "error"
    },
    {
      "inputs": [
        {
          "internalType": "uint256",
          "name": "tokenId",
          "type": "uint256"
        },
        {
          "internalType": "uint256",
          "name": "numerator",
          "type": "uint256"
        },
        {
          "internalType": "uint256",
          "name": "denominator",
          "type": "uint256"
        }
      ],
      "name": "ERC2981InvalidTokenRoyalty",
      "type": "error"
    },
    {
      "inputs": [
        {
          "internalType": "uint256",
          "name": "tokenId",
          "type": "uint256"
        },
        {
          "internalType": "address",
          "name": "receiver",
          "type": "address"
        }
      ],
      "name": "ERC2981InvalidTokenRoyaltyReceiver",
      "type": "error"
    },
    {
      "inputs": [
        {
          "internalType": "address",
          "name": "sender",
          "type": "address"
        },
        {
          "internalType": "uint256",
          "name": "tokenId",
          "type": "uint256"
        },
        {
          "internalType": "address",
          "name": "owner",
          "type": "address"
        }
      ],
      "name": "ERC721IncorrectOwner",
      "type": "error"
    },
    {
      "inputs": [
        {
          "internalType": "address",
          "name": "operator",
          "type": "address"
        },
        {
          "internalType": "uint256",
          "name": "tokenId",
          "type": "uint256"
        }
      ],
      "name": "ERC721InsufficientApproval",
      "type": "error"
    },
    {
      "inputs": [
        {
          "internalType": "address",
          "name": "approver",
          "type": "address"
        }
      ],
      "name": "ERC721InvalidApprover",
      "type": "error"
    },
    {
      "inputs": [
        {
          "internalType": "address",
          "name": "operator",
          "type": "address"
        }
      ],
      "name": "ERC721InvalidOperator",
      "type": "error"
    },
    {
      "inputs": [
        {
          "internalType": "address",
          "name": "owner",
          "type": "address"
        }
      ],
      "name": "ERC721InvalidOwner",
      "type": "error"
    },
    {
      "inputs": [
        {
          "internalType": "address",
          "name": "receiver",
          "type": "address"
        }
      ],
      "name": "ERC721InvalidReceiver",
      "type": "error"
    },
    {
      "inputs": [
        {
          "internalType": "address",
          "name": "sender",
          "type": "address"
        }
      ],
      "name": "ERC721InvalidSender",
      "type": "error"
    },
    {
      "inputs": [
        {
          "internalType": "uint256",
          "name": "tokenId",
          "type": "uint256"
        }
      ],
      "name": "ERC721NonexistentToken",
      "type": "error"
    },
    {
      "inputs": [
        {
          "internalType": "address",
          "name": "owner",
          "type": "address"
        }
      ],
      "name": "OwnableInvalidOwner",
      "type": "error"
    },
    {
      "inputs": [
        {
          "internalType": "address",
          "name": "account",
          "type": "address"
        }
      ],
      "name": "OwnableUnauthorizedAccount",
      "type": "error"
    },
    {
      "anonymous": false,
      "inputs": [
        {
          "indexed": true,
          "internalType": "address",
          "name": "owner",
          "type": "address"
        },
        {
          "indexed": true,
          "internalType": "address",
          "name": "approved",
          "type": "address"
        },
        {
          "indexed": true,
          "internalType": "uint256",
          "name": "tokenId",
          "type": "uint256"
        }
      ],
      "name": "Approval",
      "type": "event"
    },
    {
      "anonymous": false,
      "inputs": [
        {
          "indexed": true,
          "internalType": "address",
          "name": "owner",
          "type": "address"
        },
        {
          "indexed": true,
          "internalType": "address",
          "name": "operator",
          "type": "address"
        },
        {
          "indexed": false,
          "internalType": "bool",
          "name": "approved",
          "type": "bool"
        }
      ],
      "name": "ApprovalForAll",
      "type": "event"
    },
    {
      "anonymous": false,
      "inputs": [
        {
          "indexed": false,
          "internalType": "uint256",
          "name": "_fromTokenId",
          "type": "uint256"
        },
        {
          "indexed": false,
          "internalType": "uint256",
          "name": "_toTokenId",
          "type": "uint256"
        }
      ],
      "name": "BatchMetadataUpdate",
      "type": "event"
    },
    {
      "anonymous": false,
      "inputs": [
        {
          "indexed": false,
          "internalType": "string",
          "name": "newContractURI",
          "type": "string"
        }
      ],
      "name": "ContractURIUpdated",
      "type": "event"
    },
    {
      "anonymous": false,
      "inputs": [
        {
          "indexed": false,
          "internalType": "uint256",
          "name": "_tokenId",
          "type": "uint256"
        }
      ],
      "name": "MetadataUpdate",
      "type": "event"
    },
    {
      "anonymous": false,
      "inputs": [
        {
          "indexed": true,
          "internalType": "uint256",
          "name": "tokenId",
          "type": "uint256"
        },
        {
          "indexed": true,
          "internalType": "address",
          "name": "minter",
          "type": "address"
        },
        {
          "indexed": false,
          "internalType": "string",
          "name": "tokenURI",
          "type": "string"
        },
        {
          "indexed": false,
          "internalType": "string",
          "name": "arweaveId",
          "type": "string"
        }
      ],
      "name": "NFTMinted",
      "type": "event"
    },
    {
      "anonymous": false,
      "inputs": [
        {
          "indexed": true,
          "internalType": "address",
          "name": "previousOwner",
          "type": "address"
        },
        {
          "indexed": true,
          "internalType": "address",
          "name": "newOwner",
          "type": "address"
        }
      ],
      "name": "OwnershipTransferred",
      "type": "event"
    },
    {
      "anonymous": false,
      "inputs": [
        {
          "indexed": true,
          "internalType": "address",
          "name": "from",
          "type": "address"
        },
        {
          "indexed": true,
          "internalType": "address",
          "name": "to",
          "type": "address"
        },
        {
          "indexed": true,
          "internalType": "uint256",
          "name": "tokenId",
          "type": "uint256"
        }
      ],
      "name": "Transfer",
      "type": "event"
    },
    {
      "inputs": [
        {
          "internalType": "address",
          "name": "to",
          "type": "address"
        },
        {
          "internalType": "uint256",
          "name": "tokenId",
          "type": "uint256"
        }
      ],
      "name": "approve",
      "outputs": [],
      "stateMutability": "nonpayable",
      "type": "function"
    },
    {
      "inputs": [
        {
          "internalType": "address",
          "name": "owner",
          "type": "address"
        }
      ],
      "name": "balanceOf",
      "outputs": [
        {
          "internalType": "uint256",
          "name": "",
          "type": "uint256"
        }
      ],
      "stateMutability": "view",
      "type": "function"
    },
    {
      "inputs": [
        {
          "internalType": "address[]",
          "name": "recipients",
          "type": "address[]"
        },
        {
          "internalType": "string[]",
          "name": "metadataURIs",
          "type": "string[]"
        },
        {
          "internalType": "string[]",
          "name": "arweaveIds",
          "type": "string[]"
        },
        {
          "internalType": "address",
          "name": "royaltyRecipient",
          "type": "address"
        },
        {
          "internalType": "uint96",
          "name": "royaltyPercentage",
          "type": "uint96"
        }
      ],
      "name": "batchMintNFT",
      "outputs": [
        {
          "internalType": "uint256[]",
          "name": "",
          "type": "uint256[]"
        }
      ],
      "stateMutability": "nonpayable",
      "type": "function"
    },
    {
      "inputs": [],
      "name": "contractURI",
      "outputs": [
        {
          "internalType": "string",
          "name": "",
          "type": "string"
        }
      ],
      "stateMutability": "view",
      "type": "function"
    },
    {
      "inputs": [
        {
          "internalType": "uint256",
          "name": "tokenId",
          "type": "uint256"
        }
      ],
      "name": "getApproved",
      "outputs": [
        {
          "internalType": "address",
          "name": "",
          "type": "address"
        }
      ],
      "stateMutability": "view",
      "type": "function"
    },
    {
      "inputs": [
        {
          "internalType": "address",
          "name": "owner",
          "type": "address"
        },
        {
          "internalType": "address",
          "name": "operator",
          "type": "address"
        }
      ],
      "name": "isApprovedForAll",
      "outputs": [
        {
          "internalType": "bool",
          "name": "",
          "type": "bool"
        }
      ],
      "stateMutability": "view",
      "type": "function"
    },
    {
      "inputs": [
        {
          "internalType": "address",
          "name": "to",
          "type": "address"
        },
        {
          "internalType": "string",
          "name": "metadataURI",
          "type": "string"
        },
        {
          "internalType": "string",
          "name": "arweaveId",
          "type": "string"
        },
        {
          "internalType": "address",
          "name": "royaltyRecipient",
          "type": "address"
        },
        {
          "internalType": "uint96",
          "name": "royaltyPercentage",
          "type": "uint96"
        }
      ],
      "name": "mintNFT",
      "outputs": [
        {
          "internalType": "uint256",
          "name": "",
          "type": "uint256"
        }
      ],
      "stateMutability": "nonpayable",
      "type": "function"
    },
    {
      "inputs": [],
      "name": "name",
      "outputs": [
        {
          "internalType": "string",
          "name": "",
          "type": "string"
        }
      ],
      "stateMutability": "view",
      "type": "function"
    },
    {
      "inputs": [],
      "name": "owner",
      "outputs": [
        {
          "internalType": "address",
          "name": "",
          "type": "address"
        }
      ],
      "stateMutability": "view",
      "type": "function"
    },
    {
      "inputs": [
        {
          "internalType": "uint256",
          "name": "tokenId",
          "type": "uint256"
        }
      ],
      "name": "ownerOf",
      "outputs": [
        {
          "internalType": "address",
          "name": "",
          "type": "address"
        }
      ],
      "stateMutability": "view",
      "type": "function"
    },
    {
      "inputs": [],
      "name": "platformWallet",
      "outputs": [
        {
          "internalType": "address",
          "name": "",
          "type": "address"
        }
      ],
      "stateMutability": "view",
      "type": "function"
    },
    {
      "inputs": [],
      "name": "renounceOwnership",
      "outputs": [],
      "stateMutability": "nonpayable",
      "type": "function"
    },
    {
      "inputs": [
        {
          "internalType": "uint256",
          "name": "tokenId",
          "type": "uint256"
        },
        {
          "internalType": "uint256",
          "name": "salePrice",
          "type": "uint256"
        }
      ],
      "name": "royaltyInfo",
      "outputs": [
        {
          "internalType": "address",
          "name": "receiver",
          "type": "address"
        },
        {
          "internalType": "uint256",
          "name": "amount",
          "type": "uint256"
        }
      ],
      "stateMutability": "view",
      "type": "function"
    },
    {
      "inputs": [
        {
          "internalType": "address",
          "name": "from",
          "type": "address"
        },
        {
          "internalType": "address",
          "name": "to",
          "type": "address"
        },
        {
          "internalType": "uint256",
          "name": "tokenId",
          "type": "uint256"
        }
      ],
      "name": "safeTransferFrom",
      "outputs": [],
      "stateMutability": "nonpayable",
      "type": "function"
    },
    {
      "inputs": [
        {
          "internalType": "address",
          "name": "from",
          "type": "address"
        },
        {
          "internalType": "address",
          "name": "to",
          "type": "address"
        },
        {
          "internalType": "uint256",
          "name": "tokenId",
          "type": "uint256"
        },
        {
          "internalType": "bytes",
          "name": "data",
          "type": "bytes"
        }
      ],
      "name": "safeTransferFrom",
      "outputs": [],
      "stateMutability": "nonpayable",
      "type": "function"
    },
    {
      "inputs": [
        {
          "internalType": "address",
          "name": "operator",
          "type": "address"
        },
        {
          "internalType": "bool",
          "name": "approved",
          "type": "bool"
        }
      ],
      "name": "setApprovalForAll",
      "outputs": [],
      "stateMutability": "nonpayable",
      "type": "function"
    },
    {
      "inputs": [
        {
          "internalType": "string",
          "name": "newContractURI",
          "type": "string"
        }
      ],
      "name": "setContractURI",
      "outputs": [],
      "stateMutability": "nonpayable",
      "type": "function"
    },
    {
      "inputs": [
        {
          "internalType": "address",
          "name": "receiver",
          "type": "address"
        },
        {
          "internalType": "uint96",
          "name": "feeNumerator",
          "type": "uint96"
        }
      ],
      "name": "setDefaultRoyalty",
      "outputs": [],
      "stateMutability": "nonpayable",
      "type": "function"
    },
    {
      "inputs": [
        {
          "internalType": "address",
          "name": "newPlatformWallet",
          "type": "address"
        }
      ],
      "name": "setPlatformWallet",
      "outputs": [],
      "stateMutability": "nonpayable",
      "type": "function"
    },
    {
      "inputs": [
        {
          "internalType": "bytes4",
          "name": "interfaceId",
          "type": "bytes4"
        }
      ],
      "name": "supportsInterface",
      "outputs": [
        {
          "internalType": "bool",
          "name": "",
          "type": "bool"
        }
      ],
      "stateMutability": "view",
      "type": "function"
    },
    {
      "inputs": [],
      "name": "symbol",
      "outputs": [
        {
          "internalType": "string",
          "name": "",
          "type": "string"
        }
      ],
      "stateMutability": "view",
      "type": "function"
    },
    {
      "inputs": [
        {
          "internalType": "uint256",
          "name": "tokenId",
          "type": "uint256"
        }
      ],
      "name": "tokenURI",
      "outputs": [
        {
          "internalType": "string",
          "name": "",
          "type": "string"
        }
      ],
      "stateMutability": "view",
      "type": "function"
    },
    {
      "inputs": [],
      "name": "totalSupply",
      "outputs": [
        {
          "internalType": "uint256",
          "name": "",
          "type": "uint256"
        }
      ],
      "stateMutability": "view",
      "type": "function"
    },
    {
      "inputs": [
        {
          "internalType": "address",
          "name": "from",
          "type": "address"
        },
        {
          "internalType": "address",
          "name": "to",
          "type": "address"
        },
        {
          "internalType": "uint256",
          "name": "tokenId",
          "type": "uint256"
        }
      ],
      "name": "transferFrom",
      "outputs": [],
      "stateMutability": "nonpayable",
      "type": "function"
    },
    {
      "inputs": [
        {
          "internalType": "address",
          "name": "newOwner",
          "type": "address"
        }
      ],
      "name": "transferOwnership",
      "outputs": [],
      "stateMutability": "nonpayable",
      "type": "function"
    }
  ],
  "bytecode": "0x60806040523480156200001157600080fd5b50604051620021353803806200213583398101604081905262000034916200021f565b816040518060400160405280600e81526020016d4e657572616c2053616c7661676560901b815250604051806040016040528060048152602001632729a62b60e11b81525081600290816200008a9190620002fc565b506003620000998282620002fc565b5050506001600160a01b038116620000cc57604051631e4fbdf760e01b8152600060048201526024015b60405180910390fd5b620000d78162000109565b50600c80546001600160a01b0319166001600160a01b03831617905562000101816101f46200015b565b5050620003c8565b600980546001600160a01b038381166001600160a01b0319831681179093556040519116919082907f8be0079c531659141344cd1fd0a4f28419497f9722a3daafe3b4186f6b6457e090600090a35050565b6127106001600160601b0382168110156200019c57604051636f483d0960e01b81526001600160601b038316600482015260248101829052604401620000c3565b6001600160a01b038316620001c857604051635b6cc80560e11b815260006004820152602401620000c3565b50604080518082019091526001600160a01b039092168083526001600160601b039091166020909201829052600160a01b90910217600055565b80516001600160a01b03811681146200021a57600080fd5b919050565b600080604083850312156200023357600080fd5b6200023e8362000202565b91506200024e6020840162000202565b90509250929050565b634e487b7160e01b600052604160045260246000fd5b600181811c908216806200028257607f821691505b602082108103620002a357634e487b7160e01b600052602260045260246000fd5b50919050565b601f821115620002f757600081815260208120601f850160051c81016020861015620002d25750805b601f850160051c820191505b81811015620002f357828155600101620002de565b5050505b505050565b81516001600160401b0381111562000318576200031862000257565b62000330816200032984546200026d565b84620002a9565b602080601f8311600181146200036857600084156200034f5750858301515b600019600386901b1c1916600185901b178555620002f3565b600085815260208120601f198616915b82811015620003995788860151825594840194600190910190840162000378565b5085821015620003b85787850151600019600388901b60f8161c191681555b5050505050600190811b01905550565b611d5d80620003d86000396000f3fe608060405234801561001057600080fd5b50600436106101735760003560e01c80638831e9cf116100de578063b88d4fde11610097578063e8a3d48511610071578063e8a3d4851461034b578063e985e9c514610353578063f2fde38b14610366578063fa2af9da1461037957600080fd5b8063b88d4fde14610305578063bb32ca2814610318578063c87b56dd1461033857600080fd5b80638831e9cf146102a05780638da5cb5b146102b3578063938e3d7b146102c457806395d89b41146102d7578063a22cb465146102df578063aa7255f9146102f257600080fd5b806323b872dd1161013057806323b872dd1461021a5780632a55205a1461022d57806342842e0e1461025f5780636352211e1461027257806370a0823114610285578063715018a61461029857600080fd5b806301ffc9a71461017857806304634d8d146101a057806306fdde03146101b5578063081812fc146101ca578063095ea7b3146101f557806318160ddd14610208575b600080fd5b61018b6101863660046114da565b61038c565b60405190151581526020015b60405180910390f35b6101b36101ae36600461152a565b61039d565b005b6101bd6103b3565b60405161019791906115ad565b6101dd6101d83660046115c0565b610445565b6040516001600160a01b039091168152602001610197565b6101b36102033660046115d9565b61046e565b600a545b604051908152602001610197565b6101b3610228366004611603565b610479565b61024061023b36600461163f565b610509565b604080516001600160a01b039093168352602083019190915201610197565b6101b361026d366004611603565b61058e565b6101dd6102803660046115c0565b6105ae565b61020c610293366004611661565b6105b9565b6101b3610601565b6101b36102ae366004611661565b610615565b6009546001600160a01b03166101dd565b6101b36102d236600461173b565b61068f565b6101bd6106de565b6101b36102ed366004611770565b6106ed565b61020c6103003660046117ac565b6106f8565b6101b3610313366004611842565b6107ac565b61032b610326366004611967565b6107c4565b6040516101979190611a44565b6101bd6103463660046115c0565b61090a565b6101bd610915565b61018b610361366004611a88565b610924565b6101b3610374366004611661565b610952565b600c546101dd906001600160a01b031681565b60006103978261098d565b92915050565b6103a5610998565b6103af82826109c5565b5050565b6060600280546103c290611ab2565b80601f01602080910402602001604051908101604052809291908181526020018280546103ee90611ab2565b801561043b5780601f106104105761010080835404028352916020019161043b565b820191906000526020600020905b81548152906001019060200180831161041e57829003601f168201915b5050505050905090565b600061045082610a68565b506000828152600660205260409020546001600160a01b0316610397565b6103af828233610aa1565b6001600160a01b0382166104a857604051633250574960e11b8152600060048201526024015b60405180910390fd5b60006104b5838333610aae565b9050836001600160a01b0316816001600160a01b031614610503576040516364283d7b60e01b81526001600160a01b038086166004830152602482018490528216604482015260640161049f565b50505050565b600082815260016020526040812080548291906001600160a01b03811690600160a01b90046001600160601b03168161055d5750506000546001600160a01b03811690600160a01b90046001600160601b03165b60006127106105756001600160601b03841689611b02565b61057f9190611b19565b92989297509195505050505050565b6105a9838383604051806020016040528060008152506107ac565b505050565b600061039782610a68565b60006001600160a01b0382166105e5576040516322718ad960e21b81526000600482015260240161049f565b506001600160a01b031660009081526005602052604090205490565b610609610998565b6106136000610ba7565b565b61061d610998565b6001600160a01b0381166106655760405162461bcd60e51b815260206004820152600f60248201526e496e76616c6964206164647265737360881b604482015260640161049f565b600c80546001600160a01b0319166001600160a01b03831617905561068c816101f46109c5565b50565b610697610998565b600b6106a38282611b81565b507f905d981207a7d0b6c62cc46ab0be2a076d0298e4a86d0ab79882dbd01ac37378816040516106d391906115ad565b60405180910390a150565b6060600380546103c290611ab2565b6103af338383610bf9565b6000610702610998565b600a80546000918261071383611c41565b9190505590506107238782610c98565b61072d8187610cb2565b6001600160a01b0384161580159061074e57506000836001600160601b0316115b1561075e5761075e818585610d02565b866001600160a01b0316817f0372de3fa001ec655fcb2f8096e13cb1f68d1b8b9bb9d2674fc7d880de7e8045888860405161079a929190611c5a565b60405180910390a39695505050505050565b6107b7848484610479565b6105033385858585610dc4565b60606107ce610998565b845186511480156107e0575083518651145b6108245760405162461bcd60e51b8152602060048201526015602482015274082e4e4c2f240d8cadccee8d040dad2e6dac2e8c6d605b1b604482015260640161049f565b6000865167ffffffffffffffff8111156108405761084061167c565b604051908082528060200260200182016040528015610869578160200160208202803683370190505b50905060005b87518110156108ff576108d088828151811061088d5761088d611c88565b60200260200101518883815181106108a7576108a7611c88565b60200260200101518884815181106108c1576108c1611c88565b602002602001015188886106f8565b8282815181106108e2576108e2611c88565b6020908102919091010152806108f781611c41565b91505061086f565b509695505050505050565b606061039782610eef565b6060600b80546103c290611ab2565b6001600160a01b03918216600090815260076020908152604080832093909416825291909152205460ff1690565b61095a610998565b6001600160a01b03811661098457604051631e4fbdf760e01b81526000600482015260240161049f565b61068c81610ba7565b600061039782611000565b6009546001600160a01b031633146106135760405163118cdaa760e01b815233600482015260240161049f565b6127106001600160601b038216811015610a0457604051636f483d0960e01b81526001600160601b03831660048201526024810182905260440161049f565b6001600160a01b038316610a2e57604051635b6cc80560e11b81526000600482015260240161049f565b50604080518082019091526001600160a01b039092168083526001600160601b039091166020909201829052600160a01b90910217600055565b6000818152600460205260408120546001600160a01b03168061039757604051637e27328960e01b81526004810184905260240161049f565b6105a98383836001611025565b6000828152600460205260408120546001600160a01b0390811690831615610adb57610adb81848661112b565b6001600160a01b03811615610b1957610af8600085600080611025565b6001600160a01b038116600090815260056020526040902080546000190190555b6001600160a01b03851615610b48576001600160a01b0385166000908152600560205260409020805460010190555b60008481526004602052604080822080546001600160a01b0319166001600160a01b0389811691821790925591518793918516917fddf252ad1be2c89b69c2b068fc378daa952ba7f163c4a11628f55a4df523b3ef91a4949350505050565b600980546001600160a01b038381166001600160a01b0319831681179093556040519116919082907f8be0079c531659141344cd1fd0a4f28419497f9722a3daafe3b4186f6b6457e090600090a35050565b6001600160a01b038216610c2b57604051630b61174360e31b81526001600160a01b038316600482015260240161049f565b6001600160a01b03838116600081815260076020908152604080832094871680845294825291829020805460ff191686151590811790915591519182527f17307eab39ab6107e8899845ad3d59bd9653f200f220920489ca2b5937696c31910160405180910390a3505050565b6103af82826040518060200160405280600081525061118f565b6000828152600860205260409020610cca8282611b81565b506040518281527ff8e1a15aba9398e019f0b49df1a4fde98ee17ae345cb5f6b5e2c27f5033e8ce79060200160405180910390a15050565b6127106001600160601b038216811015610d485760405163dfd1fc1b60e01b8152600481018590526001600160601b03831660248201526044810182905260640161049f565b6001600160a01b038316610d7957604051634b4f842960e11b8152600481018590526000602482015260440161049f565b506040805180820182526001600160a01b0393841681526001600160601b0392831660208083019182526000968752600190529190942093519051909116600160a01b029116179055565b6001600160a01b0383163b15610ee857604051630a85bd0160e11b81526001600160a01b0384169063150b7a0290610e06908890889087908790600401611c9e565b6020604051808303816000875af1925050508015610e41575060408051601f3d908101601f19168201909252610e3e91810190611cdb565b60015b610eaa573d808015610e6f576040519150601f19603f3d011682016040523d82523d6000602084013e610e74565b606091505b508051600003610ea257604051633250574960e11b81526001600160a01b038516600482015260240161049f565b805160208201fd5b6001600160e01b03198116630a85bd0160e11b14610ee657604051633250574960e11b81526001600160a01b038516600482015260240161049f565b505b5050505050565b6060610efa82610a68565b5060008281526008602052604081208054610f1490611ab2565b80601f0160208091040260200160405190810160405280929190818152602001828054610f4090611ab2565b8015610f8d5780601f10610f6257610100808354040283529160200191610f8d565b820191906000526020600020905b815481529060010190602001808311610f7057829003601f168201915b505050505090506000610fab60408051602081019091526000815290565b90508051600003610fbd575092915050565b815115610fef578082604051602001610fd7929190611cf8565b60405160208183030381529060405292505050919050565b610ff8846111a7565b949350505050565b60006001600160e01b03198216632483248360e11b148061039757506103978261121c565b808061103957506001600160a01b03821615155b156110fb57600061104984610a68565b90506001600160a01b038316158015906110755750826001600160a01b0316816001600160a01b031614155b801561108857506110868184610924565b155b156110b15760405163a9fbf51f60e01b81526001600160a01b038416600482015260240161049f565b81156110f95783856001600160a01b0316826001600160a01b03167f8c5be1e5ebec7d5bd14f71427d1e84f3dd0314c0f7b2291e5b200ac8c7c3b92560405160405180910390a45b505b5050600090815260066020526040902080546001600160a01b0319166001600160a01b0392909216919091179055565b61113683838361125c565b6105a9576001600160a01b03831661116457604051637e27328960e01b81526004810182905260240161049f565b60405163177e802f60e01b81526001600160a01b03831660048201526024810182905260440161049f565b61119983836112bf565b6105a9336000858585610dc4565b60606111b282610a68565b5060006111ca60408051602081019091526000815290565b905060008151116111ea5760405180602001604052806000815250611215565b806111f484611324565b604051602001611205929190611cf8565b6040516020818303038152906040525b9392505050565b60006001600160e01b031982166380ac58cd60e01b148061124d57506001600160e01b03198216635b5e139f60e01b145b806103975750610397826113b7565b60006001600160a01b03831615801590610ff85750826001600160a01b0316846001600160a01b0316148061129657506112968484610924565b80610ff85750506000908152600660205260409020546001600160a01b03908116911614919050565b6001600160a01b0382166112e957604051633250574960e11b81526000600482015260240161049f565b60006112f783836000610aae565b90506001600160a01b038116156105a9576040516339e3563760e11b81526000600482015260240161049f565b60606000611331836113ec565b600101905060008167ffffffffffffffff8111156113515761135161167c565b6040519080825280601f01601f19166020018201604052801561137b576020820181803683370190505b5090508181016020015b600019016f181899199a1a9b1b9c1cb0b131b232b360811b600a86061a8153600a850494508461138557509392505050565b60006001600160e01b0319821663152a902d60e11b148061039757506301ffc9a760e01b6001600160e01b0319831614610397565b60008072184f03e93ff9f4daa797ed6e38ed64bf6a1f0160401b831061142b5772184f03e93ff9f4daa797ed6e38ed64bf6a1f0160401b830492506040015b6d04ee2d6d415b85acef81000000008310611457576d04ee2d6d415b85acef8100000000830492506020015b662386f26fc10000831061147557662386f26fc10000830492506010015b6305f5e100831061148d576305f5e100830492506008015b61271083106114a157612710830492506004015b606483106114b3576064830492506002015b600a83106103975760010192915050565b6001600160e01b03198116811461068c57600080fd5b6000602082840312156114ec57600080fd5b8135611215816114c4565b80356001600160a01b038116811461150e57600080fd5b919050565b80356001600160601b038116811461150e57600080fd5b6000806040838503121561153d57600080fd5b611546836114f7565b915061155460208401611513565b90509250929050565b60005b83811015611578578181015183820152602001611560565b50506000910152565b6000815180845261159981602086016020860161155d565b601f01601f19169290920160200192915050565b6020815260006112156020830184611581565b6000602082840312156115d257600080fd5b5035919050565b600080604083850312156115ec57600080fd5b6115f5836114f7565b946020939093013593505050565b60008060006060848603121561161857600080fd5b611621846114f7565b925061162f602085016114f7565b9150604084013590509250925092565b6000806040838503121561165257600080fd5b50508035926020909101359150565b60006020828403121561167357600080fd5b611215826114f7565b634e487b7160e01b600052604160045260246000fd5b604051601f8201601f1916810167ffffffffffffffff811182821017156116bb576116bb61167c565b604052919050565b600067ffffffffffffffff8311156116dd576116dd61167c565b6116f0601f8401601f1916602001611692565b905082815283838301111561170457600080fd5b828260208301376000602084830101529392505050565b600082601f83011261172c57600080fd5b611215838335602085016116c3565b60006020828403121561174d57600080fd5b813567ffffffffffffffff81111561176457600080fd5b610ff88482850161171b565b6000806040838503121561178357600080fd5b61178c836114f7565b9150602083013580151581146117a157600080fd5b809150509250929050565b600080600080600060a086880312156117c457600080fd5b6117cd866114f7565b9450602086013567ffffffffffffffff808211156117ea57600080fd5b6117f689838a0161171b565b9550604088013591508082111561180c57600080fd5b506118198882890161171b565b935050611828606087016114f7565b915061183660808701611513565b90509295509295909350565b6000806000806080858703121561185857600080fd5b611861856114f7565b935061186f602086016114f7565b925060408501359150606085013567ffffffffffffffff81111561189257600080fd5b8501601f810187136118a357600080fd5b6118b2878235602084016116c3565b91505092959194509250565b600067ffffffffffffffff8211156118d8576118d861167c565b5060051b60200190565b600082601f8301126118f357600080fd5b81356020611908611903836118be565b611692565b82815260059290921b8401810191818101908684111561192757600080fd5b8286015b848110156108ff57803567ffffffffffffffff81111561194b5760008081fd5b6119598986838b010161171b565b84525091830191830161192b565b600080600080600060a0868803121561197f57600080fd5b853567ffffffffffffffff8082111561199757600080fd5b818801915088601f8301126119ab57600080fd5b813560206119bb611903836118be565b82815260059290921b8401810191818101908c8411156119da57600080fd5b948201945b838610156119ff576119f0866114f7565b825294820194908201906119df565b99505089013592505080821115611a1557600080fd5b611a2189838a016118e2565b95506040880135915080821115611a3757600080fd5b50611819888289016118e2565b6020808252825182820181905260009190848201906040850190845b81811015611a7c57835183529284019291840191600101611a60565b50909695505050505050565b60008060408385031215611a9b57600080fd5b611aa4836114f7565b9150611554602084016114f7565b600181811c90821680611ac657607f821691505b602082108103611ae657634e487b7160e01b600052602260045260246000fd5b50919050565b634e487b7160e01b600052601160045260246000fd5b808202811582820484141761039757610397611aec565b600082611b3657634e487b7160e01b600052601260045260246000fd5b500490565b601f8211156105a957600081815260208120601f850160051c81016020861015611b625750805b601f850160051c820191505b81811015610ee657828155600101611b6e565b815167ffffffffffffffff811115611b9b57611b9b61167c565b611baf81611ba98454611ab2565b84611b3b565b602080601f831160018114611be45760008415611bcc5750858301515b600019600386901b1c1916600185901b178555610ee6565b600085815260208120601f198616915b82811015611c1357888601518255948401946001909101908401611bf4565b5085821015611c315787850151600019600388901b60f8161c191681555b5050505050600190811b01905550565b600060018201611c5357611c53611aec565b5060010190565b604081526000611c6d6040830185611581565b8281036020840152611c7f8185611581565b95945050505050565b634e487b7160e01b600052603260045260246000fd5b6001600160a01b0385811682528416602082015260408101839052608060608201819052600090611cd190830184611581565b9695505050505050565b600060208284031215611ced57600080fd5b8151611215816114c4565b60008351611d0a81846020880161155d565b835190830190611d1e81836020880161155d565b0194935050505056fea264697066735822122099dcecf87ab584c18dbd0c0b90bb37d200a193e1e1d2448b244329de5875e52c64736f6c63430008140033",
  "linkReferences": {},
  "deployedLinkReferences": {}
}